:03000000020C8768
:0C0C8700787FE4F6D8FD75817A020CCE6F
:100EC100252E31660025322E32660025302E316600
:010ED1000020
:100DFB00105B4375723A20202020202020202041B8
:100E0B000000106B4C696D69743A20202020202063
:040E1B002041000072
:040E20007FC87E0009
:100E2400D3EF9400EE940040167DC8EDD394007483
:0F0E340080948040031D80F3EF1F70E41E80E167
:010E4300228C
:100A8600E4F522F523F524F528F527F526F525F5D1
:100A96002CF52BF52AF529F52DF52EF532F531F540
:100AA60030752F40120E9B120E207B007A00795B68
:100AB600E4FDFF120E447B007A00796B7D01E4FFB2
:100AC600120E447542FF75430E7544C18532488542
:100AD6003147853046852F457B007A0079391206E5
:100AE600737B007A0079397D017F07120E447F01FE
:100AF600120D138F22EF2524F524E43523F5230563
:100B06002EE52E7002052DC39414E52D6480948085
:100B16005003020BDAAC23AD24E412031FE4FBFA04
:100B260079A078411202041203588E238F24AC2335
:100B3600AD24E412031FE4FBFA797F784312020422
:100B4600E4FBFA79A078401200FB8F2C8E2B8D2ABD
:100B56008C29E4F52DF52EF522FFFE7D207CC0AB19
:100B66002CAA2BA92AA82912000AE4FBFAF9F812E2
:100B760002A15014E4FFFE7D207CC0AB2CAA2BA959
:100B86002AA82912000A8012AB2CAA2BA92AA82966
:100B9600E4FFFE7D207CC01200067B8F7AC2797549
:100BA600783D1202048F288E278D268C257542FFEC
:100BB60075430E7544C68F488E478D468C457B001F
:100BC6007A0079331206737B007A007933E4FD7F6D
:100BD60005120E44E4FFFEFD7C40AB28AA27A92699
:100BE600A8251202A160044002D2A020B645120E2A
:100BF60020AF32AE31AD30AC2F7BCD7ACC794C788C
:100C06003E12000A8F328E318D308C2F7542FF7561
:100C1600430E7544CC8F488E478D468C457B007AB3
:100C26000079391206737B007A0079397D017F07D6
:100C3600120E4430B703020AF4120E20AF32AE3160
:100C4600AD30AC2F7BCD7ACC794C783E1200068F36
:100C5600328E318D308C2F7542FF75430E7544CC24
:100C66008F488E478D468C457B007A00793912066F
:100C7600737B007A0079397D017F07120E44020AE0
:010C8600F479
:100E66007580FFC292D293D294AF80C2940542E5B8
:0E0E760042D39432748094805004EF20E7E958
:010E8400224B
:100ED200AE07120E66C292C2938E80D294C2942240
:060E850014F912057BFFC9
:100E8B00AE07120E66D292C2938E80D294C2942277
:100E9B007F38120ED27F0C120ED27F06120ED27F2B
:040EAB0001020ED260
:100EAF00AE07ED6005EE24C08001EE4480FF120E08
:020EBF00D2223D
:100E44008B3F8A408941120EAFAB3FAA40A94112A1
:100E5400057B600D0541E54170020540120E858059
:020E6400E82282
:060D86008F088D098B0AA5
:100D8C00E4FDEDC39408748094805030E50A24404F
:100D9C00FFE433FEED2403FCEFA804088006CEA28A
:100DAC00E713CE13D8F8FF120ED2AB0B050DE50DE1
:100DBC00AA0C7002050C120E850D80C6AD09AF0889
:080DCC00120EAFAF0A020E8BFC
:070EE200D295C296D29722BF
:100D1300E4FEFDC295C296D29700D29600C296D247
:100D23009700D29600C296EF7004C2978002D297C2
:100D330000D29600C296D297E4FFEFC39408748062
:100D430094805012D29600C296EE25E0FE309703AF
:100D53004306010F80E4E4FFEFC39408748094809A
:100D63005012EDC313FD309703430580D29600C2A2
:100D7300960F80E4D296D295D297EEB50502FF2264
:020D83007F00EF
:010D8500224B
:100003000203C4E86480F8E933E83360110460F064
:10001300ED33EC337009E8FCE9FDEAFEEBFF220463
:1000230060DED3EB9FEA9EE99DE8C2E78CF0C2F75E
:1000330095F0400CE8CCF8E9CDF9EACEFAEBCFFB2A
:1000430012038F85D0F05804700320D5B3E80470F1
:10005300075002B2D50203CE92D5EC0460F7E4CC8C
:10006300C0E0C398F8603B94186008400DD0E0FBF3
:100073000203A6E4FBFAC9FC8028E830E406E4C9DD
:10008300FBE4CAFCE830E305E4C9CACBFCE8540747
:100093006010F8C3E913F9EA13FAEB13FBEC13FC52
:1000A300D8F130F52FC3E49CFCEF9BFFEE9AFEEDF5
:1000B30099FDD0E0FBEF4E4D4C701222DB0302039F
:1000C300CBEC2CFCEF33FFEE33FEED33FDED30E7ED
:1000D300EB0203A6EF2BFFEE3AFEED39FDD0E0FB7A
:1000E30050130BBB00030203CEED13FDEE13FEEF23
:0800F30013FFEC13FC0203A64D
:1000FB00EC4D6011E8497017ED33EC3304600DE4FF
:10010B00FCFFFEFD22E933E8330470F80203C4124E
:10011B00038F58046009E4CC24815006285009024F
:10012B0003CE2840030203CBC0E0EB4A7044B980F6
:10013B0006D0E0FB0203BAEF4E701CBD8008EBFF4C
:10014B00EAFEE9FD80EBE98DF0A4FEE5F00201E4A7
:10015B00E9CDF9EAFEEBFFEF89F0A4FCE5F0CE89DF
:10016B00F0A42EFFE435F0CD89F0A42DFEE435F09C
:10017B008067EF4E7005BD80D780C3EF8BF0A4ACCA
:10018B00F0EE8BF0A42CFCE435F0F8EF8AF0A42C05
:10019B00E5F038FCE433CB8DF0A42CFCE5F03BF818
:1001AB00EE8AF0A42CFCE5F038F8E433CF89F0A408
:1001BB002CFCE5F038CF3400CE89F0A42FFFE5F00E
:1001CB003EFEE433C98DF0A42EFEE5F039CD8AF066
:1001DB00A42FFFE5F03EFEE43DFD33D0E0FB5007DE
:1001EB000BBB000F0203CEEC2CFCEF33FFEE33FE08
:0601FB00ED33FD0203A636
:100201000203CEEC5D046005E8590470030203C4E7
:1002110012038F580460F6EC4860F2EC7004FDFEA6
:10022100FF22C860DB2481C85009C39860025006D0
:100231000203CB9850CAF582E9294B4A7005AB827B
:100241000203BA75F0007C1A7880C3EF9BEE9AED39
:1002510099400DC3EF9BFFEE9AFEED99FDE842F048
:10026100DC23ACF0D0E0FFD0E0FED0E0FDAB82209B
:10027100E7101BEB60BAEC2CFCEF33FFEE33FEED25
:1002810033FD0203A6E803F830E705C0F075F0007E
:10029100EF2FFFEE33FEED33FD40B830E7C280AA09
:1002A10074F8CC6480CCC86480C8F58204604FC304
:1002B100EB9FF5F0EA9E42F0E99D42F0E89C45F0A3
:1002C100603C501DE5825FFFE582D313CB5BCBF42D
:1002D1002B5582FB50280ABA002409B90020088056
:1002E1001DE5825BFBE582D313CF5FCFF4C3132FF0
:1002F1005582FF50090EBE00050DBD00010CC3EB78
:100301009FF5F0EA9E42F0E99D42F0E89C45F060DD
:0903110007CC4820E701B3EC22FF
:10031A0075F020800E75F010800575F0087D007E5E
:10032A00007F003392D530D5031205D3EC33401049
:10033A00EF33FFEE33FEED33FDEC33FCD5F0ED2267
:0E034A00E5F0247EA2D513CC92E7CDCEFF22A3
:10035800EDD2E7CD33EC3392D524814006E4FFFE9D
:10036800FDFC22FCE4CFCECDCC24E0501174FF80FC
:10037800EDC3CC13CCCD13CDCE13CECF13CF047099
:07038800F030D5DE0205D3C1
:10061700E5562442F8E6055622783F30070278422D
:10062700E475F0011205E102057B2000EB7F2ED275
:10063700008018EF540F2490D43440D4FF30040BBB
:10064700EF24BFB41A0050032461FFE55760021579
:1006570057055AE55A7002055930070D783FE4757A
:10066700F0011205E1EF0205C1020DD47403D207B0
:100677008003E4C207F5568B3F8A408941E4F5576A
:10068700F559F55AE55760077F2012065280F57530
:1006970058FFC201C200C202C203C205C206C20895
:1006A700120620FF700D3007057F00120663AF5A50
:1006B700AE5922B4255FC2D5C204120620FF24D04A
:1006C700B40A00501A75F00A785730D50508B6FFF6
:1006D7000106C6A426F620D5047002D20380D924C9
:1006E700CFB41A00EF5004C2E5D204020950D20178
:1006F70080C6D20080C0D20280BCD2D580BAD205D3
:1007070080B47F201206522002077401B5570040BB
:10071700F1120617FF12065202068BD208D2068084
:1007270095120617FB120617FA120617F94A4B70AD
:100737000679477A0A7BFF20022EE557602A7E005A
:100747008E8275830012059460060EEE655870F070
:10075700C2D5EBC0E0EAC0E0E9C0E0EE1209B0D0D4
:10076700E0F9D0E0FAD0E0FB12057BFF60AAEBC00E
:10077700E0EAC0E0E9C0E0120652D0E02401F9D077
:10078700E03400FAD0E0FBE5580460DCD558D980A6
:1007970087D20280A212099360F7E558700104120C
:1007A70003D9A958600DE558600914F558120A3A9B
:1007B700EF60F3EA30E702F404C3995077EAF425CF
:1007C700580430E701E404F558800D12099360C11D
:1007D700EA055825581203D9EA7855F630E701E4B7
:1007E700255804D55804200501141209B0E4C0E0C7
:1007F700120A3A7855E6601320E70714F612063A0C
:10080700802204F6D0E014C0E07F0012063AE558D3
:1008170060071206311558800B300503120631D0D8
:10082700E002068BD0E00480C512099360A0E5586A
:10083700041203D97855EAF6E55820050260010449
:0508470024041209B0B9
:10084C0074FF04C0E0120A3A12063AE55820050279
:10085C006003120631D0E0B558E87F4512064478A3
:10086C0055E67F2B30E7047F2DF404C0E0120652CE
:10087C00D0E075F00A84C0F012063BD0E012063BC3
:10088C0002068B791080027908C206C2088008D251
:10089C00D5790A8004790AC2D5E558047002F55856
:1008AC00E4FAFDFEFF120617FC7B0820011312066A
:1008BC0017FD7B1030000A120617FE120617FF7B7D
:1008CC0020EC3382D592D55013C3E43000069FFF41
:1008DC00E49EFEE42001039DFDE49CFCE4CBF8C205
:1008EC0001EC700CCFCECDCCE824F8F870F3801767
:1008FC00C3EF33FFEE33FEED33FDEC33FCEB33FB98
:10090C00994002FB0FD8E9EB300105F8D0E0C44860
:10091C00B201C0E00AEC4D4E4F78207B0070C2EA69
:10092C00B5580040BCC0E01209B2D0F0D0E02001B4
:10093C0004C4C0E0C4B201C0F012063BD0F0D5F044
:10094C00EB02068B1205F1072853088F5806F94C59
:10095C0006F54208934F089B44089B49070E430831
:10096C00A15507D246083045079C470A675006FD3B
:10097C002D07012E07242B0705230722200A502AB6
:10098C0006BD480000071CE558B4FF037558061255
:10099C000617FC120617FD120617FE120617FF7833
:1009AC004E020408790AA2D5200314300509B910A7
:1009BC00020404B9080104A2D52006025001042047
:1009CC0002689202B557005034C0E07F2030031902
:1009DC007F30A20272067205500F120A09C202C2BF
:1009EC0006C205C2087F30800F300503E9C0E01253
:1009FC000652300503D0E0F9D0E0B557CC300517DE
:100A0C007F30B9100C1206527F583004077F788063
:100A1C0003B908031206523002057F2D0206527FDD
:100A2C00202008F87F2B2006F322920280CF7F0033
:100A3C00B407005005244EF8E6FF22286E756C6C46
:100A4C002900D2011206173001F8C201785730D5AF
:100A5C000108F60206BD2D5043495812061724030F
:100A6C00B405004001E4900A6293120643743A12F2
:0A0A7C000643D20375570402088FE9
:10038F00E9D2E7C933E833F892D5EDD2E7CD33ECB4
:07039F0033FC5002B2D5222D
:1003A600EC30E7100FBF000C0EBE00080DBD0004B8
:1003B6000BEB6014A2D5EB13FCED92E7FD2274FF64
:1003C600FCFDFEFF22E480F8A2D574FF13FC7D80BD
:0303D600E480EFD1
:1003D900F920E72824F950037907E4F42402FB18EB
:1003E900DBFDE624FB5014E9600DE4F618E604F69B
:0F03F900B40A08E4F6D9F57401F60A22C2D52237
:10040800ED33EC3392D5FA602AB4FF33EDC2E77BC3
:10041800FF60067A04792DE4227A04793620D5041F
:100428007A047931224E614E002B494E46002D49FF
:100438004E4600E47A08F608DAFC7B00740722E8E6
:10044800C0E0ECC0E0EDC0E0EEC0E0EFC0E0EA756F
:10045800F010A4CAABF075F04DA42BFBE435F0FC0A
:10046800EA2410FAEB34C5FBEC34D9FCEDC2E7FF03
:1004780075F056A4F42411C5F0F434C58FF0A42AFD
:10048800E5F03BE43CF620E71412053BD0E0FFD052
:10049800E0FED0E0FDD0E0FC1202048014F4041267
:1004A800053BD0E0FFD0E0FED0E0FDD0E0FC12003C
:1004B800FBD0E0F8E6FAEDD2E7CD33EC332482FB4B
:1004C800E4C3CF33CFCE33CECD33CD33DBF37B078D
:1004D80075F00A846004F6081B0AE5F0F6088FF048
:1004E800740AA4FFACF08EF0740AA42CFEACF05091
:1004F800010C8DF0740AA42CFDE435F0F608DBDE5F
:0305080074072253
:10050B003F8000004120000042C80000447A0000F8
:10051B00461C400047C35000497424004B1896807A
:10052B004CBEBC205A0E1BCA6753C21C749DC5AE71
:10053B00FB60065407601C2323120569EB543860DB
:10054B00091205551205641200FBECF8EDF9EEFAF1
:10055B00EFCB22EB12056480F1543803241C900579
:10056B000BFE93FC0EEE93FD0EEE930ECE93FF223D
:100C9300020A86E493A3F8E493A34003F68001F2E7
:100CA30008DFF48029E493A3F85407240CC8C33362
:100CB300C4540F4420C8834004F456800146F6DF31
:100CC300E4800B0102040810204080900DFBE47EB9
:100CD300019360BCA3FF543F30E509541FFEE49326
:100CE300A360010ECF54C025E060A840B8E493A3ED
:100CF300FAE493A3F8E493A3C8C582C8CAC583CA18
:100D0300F0A3C8C582C8CAC583CADFE9DEE780BECF
:010E1F0000D2
:10057B00BB010689828A83E0225002E722BBFE027E
:09058B00E32289828A83E49322B1
:10059400BB010CE58229F582E5833AF583E022501C
:1005A40006E92582F8E622BBFE06E92582F8E22266
:0D05B400E58229F582E5833AF583E4932280
:1005C100BB010689828A83F0225002F722BBFE0119
:0205D100F32213
:0E05D300C3E49FFFE49EFEE49DFDE49CFC2239
:1005E100FAE6FB0808E6F925F0F618E6CA3AF6221B
:1005F100D083D082F8E4937012740193700DA3A399
:1006010093F8740193F5828883E4737402936860AC
:06061100EFA3A3A380DFAC
:100DD400EFB40A07740D120DDF740A309811A89944
:100DE400B8130CC2983098FDA899C298B811F6307F
:070DF40099FDC299F5992257
:00000001FF
